{
  "contractName": "DecentralBank",
  "abi": [
    {
      "inputs": [
        {
          "internalType": "contract RWD",
          "name": "_rwd",
          "type": "address"
        },
        {
          "internalType": "contract Tether",
          "name": "_tether",
          "type": "address"
        }
      ],
      "stateMutability": "nonpayable",
      "type": "constructor"
    },
    {
      "inputs": [
        {
          "internalType": "address",
          "name": "",
          "type": "address"
        }
      ],
      "name": "hasStacked",
      "outputs": [
        {
          "internalType": "bool",
          "name": "",
          "type": "bool"
        }
      ],
      "stateMutability": "view",
      "type": "function",
      "constant": true
    },
    {
      "inputs": [
        {
          "internalType": "address",
          "name": "",
          "type": "address"
        }
      ],
      "name": "isStacked",
      "outputs": [
        {
          "internalType": "bool",
          "name": "",
          "type": "bool"
        }
      ],
      "stateMutability": "view",
      "type": "function",
      "constant": true
    },
    {
      "inputs": [],
      "name": "name",
      "outputs": [
        {
          "internalType": "string",
          "name": "",
          "type": "string"
        }
      ],
      "stateMutability": "view",
      "type": "function",
      "constant": true
    },
    {
      "inputs": [],
      "name": "owner",
      "outputs": [
        {
          "internalType": "address",
          "name": "",
          "type": "address"
        }
      ],
      "stateMutability": "view",
      "type": "function",
      "constant": true
    },
    {
      "inputs": [],
      "name": "rwd",
      "outputs": [
        {
          "internalType": "contract RWD",
          "name": "",
          "type": "address"
        }
      ],
      "stateMutability": "view",
      "type": "function",
      "constant": true
    },
    {
      "inputs": [
        {
          "internalType": "uint256",
          "name": "",
          "type": "uint256"
        }
      ],
      "name": "stackers",
      "outputs": [
        {
          "internalType": "address",
          "name": "",
          "type": "address"
        }
      ],
      "stateMutability": "view",
      "type": "function",
      "constant": true
    },
    {
      "inputs": [
        {
          "internalType": "address",
          "name": "",
          "type": "address"
        }
      ],
      "name": "stakerBalance",
      "outputs": [
        {
          "internalType": "uint256",
          "name": "",
          "type": "uint256"
        }
      ],
      "stateMutability": "view",
      "type": "function",
      "constant": true
    },
    {
      "inputs": [],
      "name": "tether",
      "outputs": [
        {
          "internalType": "contract Tether",
          "name": "",
          "type": "address"
        }
      ],
      "stateMutability": "view",
      "type": "function",
      "constant": true
    },
    {
      "inputs": [
        {
          "internalType": "uint256",
          "name": "_amount",
          "type": "uint256"
        }
      ],
      "name": "depositToken",
      "outputs": [],
      "stateMutability": "nonpayable",
      "type": "function"
    },
    {
      "inputs": [],
      "name": "unStake",
      "outputs": [],
      "stateMutability": "nonpayable",
      "type": "function"
    },
    {
      "inputs": [],
      "name": "isIssued",
      "outputs": [],
      "stateMutability": "nonpayable",
      "type": "function"
    }
  ],
  "bytecode": "0x60806040526040518060400160405280600e81526020017f446563656e7472616c2042616e6b000000000000000000000000000000000000815250600090805190602001906200005192919062000150565b503480156200005f57600080fd5b5060405162001326380380620013268339818101604052810190620000859190620002c3565b33600160006101000a81548173ffffffffffffffffffffffffffffffffffffffff021916908373ffffffffffffffffffffffffffffffffffffffff16021790555081600260006101000a81548173ffffffffffffffffffffffffffffffffffffffff021916908373ffffffffffffffffffffffffffffffffffffffff16021790555080600360006101000a81548173ffffffffffffffffffffffffffffffffffffffff021916908373ffffffffffffffffffffffffffffffffffffffff16021790555050506200036e565b8280546200015e9062000339565b90600052602060002090601f016020900481019282620001825760008555620001ce565b82601f106200019d57805160ff1916838001178555620001ce565b82800160010185558215620001ce579182015b82811115620001cd578251825591602001919060010190620001b0565b5b509050620001dd9190620001e1565b5090565b5b80821115620001fc576000816000905550600101620001e2565b5090565b600080fd5b600073ffffffffffffffffffffffffffffffffffffffff82169050919050565b6000620002328262000205565b9050919050565b6000620002468262000225565b9050919050565b620002588162000239565b81146200026457600080fd5b50565b60008151905062000278816200024d565b92915050565b60006200028b8262000225565b9050919050565b6200029d816200027e565b8114620002a957600080fd5b50565b600081519050620002bd8162000292565b92915050565b60008060408385031215620002dd57620002dc62000200565b5b6000620002ed8582860162000267565b92505060206200030085828601620002ac565b9150509250929050565b7f4e487b7100000000000000000000000000000000000000000000000000000000600052602260045260246000fd5b600060028204905060018216806200035257607f821691505b6020821081036200036857620003676200030a565b5b50919050565b610fa8806200037e6000396000f3fe608060405234801561001057600080fd5b50600436106100a95760003560e01c806373cf575a1161007157806373cf575a146101545780638da5cb5b1461015e578063c03a033e1461017c578063d33ce61a146101ac578063eca5b8d3146101b6578063fb453e23146101e6576100a9565b806306fdde03146100ae5780631a8972d3146100cc57806332ac90cf146100ea5780635efc071a1461011a5780636215be7714610138575b600080fd5b6100b6610216565b6040516100c39190610a3c565b60405180910390f35b6100d46102a4565b6040516100e19190610add565b60405180910390f35b61010460048036038101906100ff9190610b3b565b6102ca565b6040516101119190610b83565b60405180910390f35b6101226102ea565b60405161012f9190610bbf565b60405180910390f35b610152600480360381019061014d9190610c10565b610310565b005b61015c6105b4565b005b610166610746565b6040516101739190610c4c565b60405180910390f35b61019660048036038101906101919190610b3b565b61076c565b6040516101a39190610b83565b60405180910390f35b6101b461078c565b005b6101d060048036038101906101cb9190610b3b565b61094c565b6040516101dd9190610c76565b60405180910390f35b61020060048036038101906101fb9190610c10565b610964565b60405161020d9190610c4c565b60405180910390f35b6000805461022390610cc0565b80601f016020809104026020016040519081016040528092919081815260200182805461024f90610cc0565b801561029c5780601f106102715761010080835404028352916020019161029c565b820191906000526020600020905b81548152906001019060200180831161027f57829003601f168201915b505050505081565b600260009054906101000a900473ffffffffffffffffffffffffffffffffffffffff1681565b60066020528060005260406000206000915054906101000a900460ff1681565b600360009054906101000a900473ffffffffffffffffffffffffffffffffffffffff1681565b60008111610353576040517f08c379a000000000000000000000000000000000000000000000000000000000815260040161034a90610d3d565b60405180910390fd5b600360009054906101000a900473ffffffffffffffffffffffffffffffffffffffff1673ffffffffffffffffffffffffffffffffffffffff166323b872dd3330846040518463ffffffff1660e01b81526004016103b293929190610d5d565b6020604051808303816000875af11580156103d1573d6000803e3d6000fd5b505050506040513d601f19601f820116820180604052508101906103f59190610dc0565b5080600560003373ffffffffffffffffffffffffffffffffffffffff1673ffffffffffffffffffffffffffffffffffffffff16815260200190815260200160002060008282546104459190610e1c565b92505081905550600660003373ffffffffffffffffffffffffffffffffffffffff1673ffffffffffffffffffffffffffffffffffffffff16815260200190815260200160002060009054906101000a900460ff16610501576004339080600181540180825580915050600190039060005260206000200160009091909190916101000a81548173ffffffffffffffffffffffffffffffffffffffff021916908373ffffffffffffffffffffffffffffffffffffffff1602179055505b6001600760003373ffffffffffffffffffffffffffffffffffffffff1673ffffffffffffffffffffffffffffffffffffffff16815260200190815260200160002060006101000a81548160ff0219169083151502179055506001600660003373ffffffffffffffffffffffffffffffffffffffff1673ffffffffffffffffffffffffffffffffffffffff16815260200190815260200160002060006101000a81548160ff02191690831515021790555050565b6000600560003373ffffffffffffffffffffffffffffffffffffffff1673ffffffffffffffffffffffffffffffffffffffff1681526020019081526020016000205490506000811161060557600080fd5b600360009054906101000a900473ffffffffffffffffffffffffffffffffffffffff1673ffffffffffffffffffffffffffffffffffffffff1663a9059cbb33836040518363ffffffff1660e01b8152600401610662929190610e72565b6020604051808303816000875af1158015610681573d6000803e3d6000fd5b505050506040513d601f19601f820116820180604052508101906106a59190610dc0565b506000600560003373ffffffffffffffffffffffffffffffffffffffff1673ffffffffffffffffffffffffffffffffffffffff168152602001908152602001600020819055506000600760003373ffffffffffffffffffffffffffffffffffffffff1673ffffffffffffffffffffffffffffffffffffffff16815260200190815260200160002060006101000a81548160ff02191690831515021790555050565b600160009054906101000a900473ffffffffffffffffffffffffffffffffffffffff1681565b60076020528060005260406000206000915054906101000a900460ff1681565b600160009054906101000a900473ffffffffffffffffffffffffffffffffffffffff1673ffffffffffffffffffffffffffffffffffffffff163373ffffffffffffffffffffffffffffffffffffffff16146107e657600080fd5b60005b6004805490508110156109495760006004828154811061080c5761080b610e9b565b5b9060005260206000200160009054906101000a900473ffffffffffffffffffffffffffffffffffffffff16905060006009600560008473ffffffffffffffffffffffffffffffffffffffff1673ffffffffffffffffffffffffffffffffffffffff168152602001908152602001600020546108879190610ef9565b9050600081111561093457600260009054906101000a900473ffffffffffffffffffffffffffffffffffffffff1673ffffffffffffffffffffffffffffffffffffffff1663a9059cbb83836040518363ffffffff1660e01b81526004016108ef929190610e72565b6020604051808303816000875af115801561090e573d6000803e3d6000fd5b505050506040513d601f19601f820116820180604052508101906109329190610dc0565b505b5050808061094190610f2a565b9150506107e9565b50565b60056020528060005260406000206000915090505481565b6004818154811061097457600080fd5b906000526020600020016000915054906101000a900473ffffffffffffffffffffffffffffffffffffffff1681565b600081519050919050565b600082825260208201905092915050565b60005b838110156109dd5780820151818401526020810190506109c2565b838111156109ec576000848401525b50505050565b6000601f19601f8301169050919050565b6000610a0e826109a3565b610a1881856109ae565b9350610a288185602086016109bf565b610a31816109f2565b840191505092915050565b60006020820190508181036000830152610a568184610a03565b905092915050565b600073ffffffffffffffffffffffffffffffffffffffff82169050919050565b6000819050919050565b6000610aa3610a9e610a9984610a5e565b610a7e565b610a5e565b9050919050565b6000610ab582610a88565b9050919050565b6000610ac782610aaa565b9050919050565b610ad781610abc565b82525050565b6000602082019050610af26000830184610ace565b92915050565b600080fd5b6000610b0882610a5e565b9050919050565b610b1881610afd565b8114610b2357600080fd5b50565b600081359050610b3581610b0f565b92915050565b600060208284031215610b5157610b50610af8565b5b6000610b5f84828501610b26565b91505092915050565b60008115159050919050565b610b7d81610b68565b82525050565b6000602082019050610b986000830184610b74565b92915050565b6000610ba982610aaa565b9050919050565b610bb981610b9e565b82525050565b6000602082019050610bd46000830184610bb0565b92915050565b6000819050919050565b610bed81610bda565b8114610bf857600080fd5b50565b600081359050610c0a81610be4565b92915050565b600060208284031215610c2657610c25610af8565b5b6000610c3484828501610bfb565b91505092915050565b610c4681610afd565b82525050565b6000602082019050610c616000830184610c3d565b92915050565b610c7081610bda565b82525050565b6000602082019050610c8b6000830184610c67565b92915050565b7f4e487b7100000000000000000000000000000000000000000000000000000000600052602260045260246000fd5b60006002820490506001821680610cd857607f821691505b602082108103610ceb57610cea610c91565b5b50919050565b7f616d6f756e742073686f756c642062652067726561746572207468616e203000600082015250565b6000610d27601f836109ae565b9150610d3282610cf1565b602082019050919050565b60006020820190508181036000830152610d5681610d1a565b9050919050565b6000606082019050610d726000830186610c3d565b610d7f6020830185610c3d565b610d8c6040830184610c67565b949350505050565b610d9d81610b68565b8114610da857600080fd5b50565b600081519050610dba81610d94565b92915050565b600060208284031215610dd657610dd5610af8565b5b6000610de484828501610dab565b91505092915050565b7f4e487b7100000000000000000000000000000000000000000000000000000000600052601160045260246000fd5b6000610e2782610bda565b9150610e3283610bda565b9250827fffffffffffffffffffffffffffffffffffffffffffffffffffffffffffffffff03821115610e6757610e66610ded565b5b828201905092915050565b6000604082019050610e876000830185610c3d565b610e946020830184610c67565b9392505050565b7f4e487b7100000000000000000000000000000000000000000000000000000000600052603260045260246000fd5b7f4e487b7100000000000000000000000000000000000000000000000000000000600052601260045260246000fd5b6000610f0482610bda565b9150610f0f83610bda565b925082610f1f57610f1e610eca565b5b828204905092915050565b6000610f3582610bda565b91507fffffffffffffffffffffffffffffffffffffffffffffffffffffffffffffffff8203610f6757610f66610ded565b5b60018201905091905056fea264697066735822122040a09118b7129746c1af28e4eca6852df288d35da5c956cecc6a2d32b088978564736f6c634300080d0033",
  "immutableReferences": {},
  "source": "// SPDX-License-Identifier: MIT\r\npragma solidity 0.8.13;\r\n\r\nimport \"./RWD.sol\";\r\nimport \"./Tether.sol\";\r\n\r\ncontract DecentralBank {\r\n    string public name = \"Decentral Bank\";\r\n    address public owner;\r\n    RWD public rwd;\r\n    Tether public tether;\r\n\r\n    address[] public stackers;\r\n\r\n    mapping(address => uint256) public stakerBalance;\r\n    mapping(address => bool) public hasStacked;\r\n    mapping(address => bool) public isStacked;\r\n\r\n    constructor(RWD _rwd, Tether _tether) {\r\n        owner = msg.sender;\r\n        rwd = _rwd;\r\n        tether = _tether;\r\n    }\r\n\r\n    function depositToken(uint256 _amount) public {\r\n        require(_amount > 0, \"amount should be greater than 0\");\r\n        tether.transferFrom(msg.sender, address(this), _amount);\r\n\r\n        stakerBalance[msg.sender] += _amount;\r\n\r\n        if (!hasStacked[msg.sender]) {\r\n            stackers.push(msg.sender);\r\n        }\r\n\r\n        isStacked[msg.sender] = true;\r\n        hasStacked[msg.sender] = true;\r\n    }\r\n    function unStake() public {\r\n        uint bal = stakerBalance[msg.sender];\r\n        require(bal > 0);\r\n        tether.transfer(msg.sender, bal);\r\n        stakerBalance[msg.sender] = 0;\r\n        isStacked[msg.sender] = false;\r\n    }\r\n\r\n    function isIssued() public {\r\n        require(msg.sender == owner);\r\n        for (uint i = 0; i < stackers.length; i++) {\r\n            address recepient = stackers[i];\r\n            uint256 balance = stakerBalance[recepient] / 9;\r\n            if (balance > 0) {\r\n                rwd.transfer(recepient, balance);\r\n            }\r\n        }\r\n    }\r\n}\r\n",
  "sourcePath": "C:\\Users\\Dell\\Desktop\\defi-staking-app-starter\\defi-staking-app-starter\\src\\contracts\\DecentralBank.sol",
  "compiler": {
    "name": "solc",
    "version": "0.8.13+commit.abaa5c0e.Emscripten.clang"
  },
  "schemaVersion": "3.4.16",
  "updatedAt": "2024-05-21T11:57:34.988Z",
  "networkType": "ethereum",
  "devdoc": {
    "kind": "dev",
    "methods": {},
    "version": 1
  },
  "userdoc": {
    "kind": "user",
    "methods": {},
    "version": 1
  }
}