{
  "contractName": "RWD",
  "abi": [
    {
      "inputs": [],
      "stateMutability": "nonpayable",
      "type": "constructor"
    },
    {
      "anonymous": false,
      "inputs": [
        {
          "indexed": true,
          "internalType": "address",
          "name": "_owner",
          "type": "address"
        },
        {
          "indexed": true,
          "internalType": "address",
          "name": "_spender",
          "type": "address"
        },
        {
          "indexed": false,
          "internalType": "uint256",
          "name": "_value",
          "type": "uint256"
        }
      ],
      "name": "Approval",
      "type": "event"
    },
    {
      "anonymous": false,
      "inputs": [
        {
          "indexed": true,
          "internalType": "address",
          "name": "_from",
          "type": "address"
        },
        {
          "indexed": true,
          "internalType": "address",
          "name": "_to",
          "type": "address"
        },
        {
          "indexed": false,
          "internalType": "uint256",
          "name": "_value",
          "type": "uint256"
        }
      ],
      "name": "Transfer",
      "type": "event"
    },
    {
      "inputs": [
        {
          "internalType": "address",
          "name": "",
          "type": "address"
        },
        {
          "internalType": "address",
          "name": "",
          "type": "address"
        }
      ],
      "name": "allowance",
      "outputs": [
        {
          "internalType": "uint256",
          "name": "",
          "type": "uint256"
        }
      ],
      "stateMutability": "view",
      "type": "function"
    },
    {
      "inputs": [
        {
          "internalType": "address",
          "name": "",
          "type": "address"
        }
      ],
      "name": "balanceOf",
      "outputs": [
        {
          "internalType": "uint256",
          "name": "",
          "type": "uint256"
        }
      ],
      "stateMutability": "view",
      "type": "function"
    },
    {
      "inputs": [],
      "name": "digit",
      "outputs": [
        {
          "internalType": "uint8",
          "name": "",
          "type": "uint8"
        }
      ],
      "stateMutability": "view",
      "type": "function"
    },
    {
      "inputs": [],
      "name": "name",
      "outputs": [
        {
          "internalType": "string",
          "name": "",
          "type": "string"
        }
      ],
      "stateMutability": "view",
      "type": "function"
    },
    {
      "inputs": [],
      "name": "symbol",
      "outputs": [
        {
          "internalType": "string",
          "name": "",
          "type": "string"
        }
      ],
      "stateMutability": "view",
      "type": "function"
    },
    {
      "inputs": [],
      "name": "totalSupply",
      "outputs": [
        {
          "internalType": "uint256",
          "name": "",
          "type": "uint256"
        }
      ],
      "stateMutability": "view",
      "type": "function"
    },
    {
      "inputs": [
        {
          "internalType": "address",
          "name": "_to",
          "type": "address"
        },
        {
          "internalType": "uint256",
          "name": "_value",
          "type": "uint256"
        }
      ],
      "name": "trasnfer",
      "outputs": [
        {
          "internalType": "bool",
          "name": "success",
          "type": "bool"
        }
      ],
      "stateMutability": "nonpayable",
      "type": "function"
    },
    {
      "inputs": [
        {
          "internalType": "address",
          "name": "_spender",
          "type": "address"
        },
        {
          "internalType": "uint256",
          "name": "_value",
          "type": "uint256"
        }
      ],
      "name": "approve",
      "outputs": [
        {
          "internalType": "bool",
          "name": "success",
          "type": "bool"
        }
      ],
      "stateMutability": "nonpayable",
      "type": "function"
    },
    {
      "inputs": [
        {
          "internalType": "address",
          "name": "_from",
          "type": "address"
        },
        {
          "internalType": "address",
          "name": "_to",
          "type": "address"
        },
        {
          "internalType": "uint256",
          "name": "_value",
          "type": "uint256"
        }
      ],
      "name": "trasnferFrom",
      "outputs": [
        {
          "internalType": "bool",
          "name": "success",
          "type": "bool"
        }
      ],
      "stateMutability": "nonpayable",
      "type": "function"
    }
  ],
  "bytecode": "0x60806040526040518060400160405280600c81526020017f52657761726420546f6b656e00000000000000000000000000000000000000008152505f90816100479190610345565b506040518060400160405280600381526020017f52574400000000000000000000000000000000000000000000000000000000008152506001908161008c9190610345565b5069d3c21bcecceda1000000600255601260035f6101000a81548160ff021916908360ff1602179055503480156100c1575f80fd5b5060025460045f3373ffffffffffffffffffffffffffffffffffffffff1673ffffffffffffffffffffffffffffffffffffffff1681526020019081526020015f2081905550610414565b5f81519050919050565b7f4e487b71000000000000000000000000000000000000000000000000000000005f52604160045260245ffd5b7f4e487b71000000000000000000000000000000000000000000000000000000005f52602260045260245ffd5b5f600282049050600182168061018657607f821691505b60208210810361019957610198610142565b5b50919050565b5f819050815f5260205f209050919050565b5f6020601f8301049050919050565b5f82821b905092915050565b5f600883026101fb7fffffffffffffffffffffffffffffffffffffffffffffffffffffffffffffffff826101c0565b61020586836101c0565b95508019841693508086168417925050509392505050565b5f819050919050565b5f819050919050565b5f61024961024461023f8461021d565b610226565b61021d565b9050919050565b5f819050919050565b6102628361022f565b61027661026e82610250565b8484546101cc565b825550505050565b5f90565b61028a61027e565b610295818484610259565b505050565b5b818110156102b8576102ad5f82610282565b60018101905061029b565b5050565b601f8211156102fd576102ce8161019f565b6102d7846101b1565b810160208510156102e6578190505b6102fa6102f2856101b1565b83018261029a565b50505b505050565b5f82821c905092915050565b5f61031d5f1984600802610302565b1980831691505092915050565b5f610335838361030e565b9150826002028217905092915050565b61034e8261010b565b67ffffffffffffffff81111561036757610366610115565b5b610371825461016f565b61037c8282856102bc565b5f60209050601f8311600181146103ad575f841561039b578287015190505b6103a5858261032a565b86555061040c565b601f1984166103bb8661019f565b5f5b828110156103e2578489015182556001820191506020850194506020810190506103bd565b868310156103ff57848901516103fb601f89168261030e565b8355505b6001600288020188555050505b505050505050565b610bec806104215f395ff3fe608060405234801561000f575f80fd5b5060043610610091575f3560e01c806395d89b411161006457806395d89b41146101315780639be84dcb1461014f578063cd2337331461017f578063dd62ed3e1461019d578063de8b5f79146101cd57610091565b806306fdde0314610095578063095ea7b3146100b357806318160ddd146100e357806370a0823114610101575b5f80fd5b61009d6101fd565b6040516100aa919061088f565b60405180910390f35b6100cd60048036038101906100c89190610940565b610288565b6040516100da9190610998565b60405180910390f35b6100eb610375565b6040516100f891906109c0565b60405180910390f35b61011b600480360381019061011691906109d9565b61037b565b60405161012891906109c0565b60405180910390f35b610139610390565b604051610146919061088f565b60405180910390f35b61016960048036038101906101649190610a04565b61041c565b6040516101769190610998565b60405180910390f35b61018761068e565b6040516101949190610a6f565b60405180910390f35b6101b760048036038101906101b29190610a88565b6106a0565b6040516101c491906109c0565b60405180910390f35b6101e760048036038101906101e29190610940565b6106c0565b6040516101f49190610998565b60405180910390f35b5f805461020990610af3565b80601f016020809104026020016040519081016040528092919081815260200182805461023590610af3565b80156102805780601f1061025757610100808354040283529160200191610280565b820191905f5260205f20905b81548152906001019060200180831161026357829003601f168201915b505050505081565b5f8160055f3373ffffffffffffffffffffffffffffffffffffffff1673ffffffffffffffffffffffffffffffffffffffff1681526020019081526020015f205f8573ffffffffffffffffffffffffffffffffffffffff1673ffffffffffffffffffffffffffffffffffffffff1681526020019081526020015f20819055508273ffffffffffffffffffffffffffffffffffffffff163373ffffffffffffffffffffffffffffffffffffffff167f8c5be1e5ebec7d5bd14f71427d1e84f3dd0314c0f7b2291e5b200ac8c7c3b9258460405161036391906109c0565b60405180910390a36001905092915050565b60025481565b6004602052805f5260405f205f915090505481565b6001805461039d90610af3565b80601f01602080910402602001604051908101604052809291908181526020018280546103c990610af3565b80156104145780601f106103eb57610100808354040283529160200191610414565b820191905f5260205f20905b8154815290600101906020018083116103f757829003601f168201915b505050505081565b5f8160045f3373ffffffffffffffffffffffffffffffffffffffff1673ffffffffffffffffffffffffffffffffffffffff1681526020019081526020015f20541015610466575f80fd5b8160055f8673ffffffffffffffffffffffffffffffffffffffff1673ffffffffffffffffffffffffffffffffffffffff1681526020019081526020015f205f3373ffffffffffffffffffffffffffffffffffffffff1673ffffffffffffffffffffffffffffffffffffffff1681526020019081526020015f205410156104ea575f80fd5b8160045f8573ffffffffffffffffffffffffffffffffffffffff1673ffffffffffffffffffffffffffffffffffffffff1681526020019081526020015f205f8282546105369190610b50565b925050819055508160045f3373ffffffffffffffffffffffffffffffffffffffff1673ffffffffffffffffffffffffffffffffffffffff1681526020019081526020015f205f8282546105899190610b83565b925050819055508160055f8673ffffffffffffffffffffffffffffffffffffffff1673ffffffffffffffffffffffffffffffffffffffff1681526020019081526020015f205f3373ffffffffffffffffffffffffffffffffffffffff1673ffffffffffffffffffffffffffffffffffffffff1681526020019081526020015f205f8282546106179190610b83565b925050819055508273ffffffffffffffffffffffffffffffffffffffff163373ffffffffffffffffffffffffffffffffffffffff167fddf252ad1be2c89b69c2b068fc378daa952ba7f163c4a11628f55a4df523b3ef8460405161067b91906109c0565b60405180910390a3600190509392505050565b60035f9054906101000a900460ff1681565b6005602052815f5260405f20602052805f5260405f205f91509150505481565b5f8160045f3373ffffffffffffffffffffffffffffffffffffffff1673ffffffffffffffffffffffffffffffffffffffff1681526020019081526020015f2054101561070a575f80fd5b8160045f8573ffffffffffffffffffffffffffffffffffffffff1673ffffffffffffffffffffffffffffffffffffffff1681526020019081526020015f205f8282546107569190610b50565b925050819055508160045f3373ffffffffffffffffffffffffffffffffffffffff1673ffffffffffffffffffffffffffffffffffffffff1681526020019081526020015f205f8282546107a99190610b83565b925050819055508273ffffffffffffffffffffffffffffffffffffffff163373ffffffffffffffffffffffffffffffffffffffff167fddf252ad1be2c89b69c2b068fc378daa952ba7f163c4a11628f55a4df523b3ef8460405161080d91906109c0565b60405180910390a36001905092915050565b5f81519050919050565b5f82825260208201905092915050565b8281835e5f83830152505050565b5f601f19601f8301169050919050565b5f6108618261081f565b61086b8185610829565b935061087b818560208601610839565b61088481610847565b840191505092915050565b5f6020820190508181035f8301526108a78184610857565b905092915050565b5f80fd5b5f73ffffffffffffffffffffffffffffffffffffffff82169050919050565b5f6108dc826108b3565b9050919050565b6108ec816108d2565b81146108f6575f80fd5b50565b5f81359050610907816108e3565b92915050565b5f819050919050565b61091f8161090d565b8114610929575f80fd5b50565b5f8135905061093a81610916565b92915050565b5f8060408385031215610956576109556108af565b5b5f610963858286016108f9565b92505060206109748582860161092c565b9150509250929050565b5f8115159050919050565b6109928161097e565b82525050565b5f6020820190506109ab5f830184610989565b92915050565b6109ba8161090d565b82525050565b5f6020820190506109d35f8301846109b1565b92915050565b5f602082840312156109ee576109ed6108af565b5b5f6109fb848285016108f9565b91505092915050565b5f805f60608486031215610a1b57610a1a6108af565b5b5f610a28868287016108f9565b9350506020610a39868287016108f9565b9250506040610a4a8682870161092c565b9150509250925092565b5f60ff82169050919050565b610a6981610a54565b82525050565b5f602082019050610a825f830184610a60565b92915050565b5f8060408385031215610a9e57610a9d6108af565b5b5f610aab858286016108f9565b9250506020610abc858286016108f9565b9150509250929050565b7f4e487b71000000000000000000000000000000000000000000000000000000005f52602260045260245ffd5b5f6002820490506001821680610b0a57607f821691505b602082108103610b1d57610b1c610ac6565b5b50919050565b7f4e487b71000000000000000000000000000000000000000000000000000000005f52601160045260245ffd5b5f610b5a8261090d565b9150610b658361090d565b9250828201905080821115610b7d57610b7c610b23565b5b92915050565b5f610b8d8261090d565b9150610b988361090d565b9250828203905081811115610bb057610baf610b23565b5b9291505056fea2646970667358221220533a63aa3592c2b66b94e56ae616664072d554fdea7b6eaabecdb71fdf20a51c64736f6c63430008190033",
  "immutableReferences": {},
  "source": "// SPDX-License-Identifier: MIT\r\npragma solidity ^0.8.19;\r\n\r\ncontract RWD {\r\n    string public name = \"Reward Token\";\r\n    string public symbol = \"RWD\";\r\n    uint256 public totalSupply = 1000000000000000000000000;\r\n    uint8 public digit = 18;\r\n\r\n    mapping(address => uint256) public balanceOf;\r\n    mapping(address => mapping(address => uint256)) public allowance;\r\n\r\n    event Transfer(address indexed _from, address indexed _to, uint256 _value);\r\n    event Approval(\r\n        address indexed _owner,\r\n        address indexed _spender,\r\n        uint256 _value\r\n    );\r\n\r\n    constructor() {\r\n        balanceOf[msg.sender] = totalSupply;\r\n    }\r\n    function trasnfer(\r\n        address _to,\r\n        uint256 _value\r\n    ) public returns (bool success) {\r\n        require(balanceOf[msg.sender] >= _value);\r\n        balanceOf[_to] += _value;\r\n        balanceOf[msg.sender] -= _value;\r\n        emit Transfer(msg.sender, _to, _value);\r\n        return true;\r\n    }\r\n    function approve(\r\n        address _spender,\r\n        uint256 _value\r\n    ) public returns (bool success) {\r\n        allowance[msg.sender][_spender] = _value;\r\n        emit Approval(msg.sender, _spender, _value);\r\n        return true;\r\n    }\r\n    function trasnferFrom(\r\n        address _from,\r\n        address _to,\r\n        uint256 _value\r\n    ) public returns (bool success) {\r\n        require(balanceOf[msg.sender] >= _value);\r\n        require(allowance[_from][msg.sender] >= _value);\r\n        balanceOf[_to] += _value;\r\n        balanceOf[msg.sender] -= _value;\r\n        allowance[_from][msg.sender] -= _value;\r\n        emit Transfer(msg.sender, _to, _value);\r\n        return true;\r\n    }\r\n}\r\n",
  "sourcePath": "C:\\Users\\Dell\\Desktop\\defi-staking-app-starter\\defi-staking-app-starter\\src\\contracts\\RWD.sol",
  "compiler": {
    "name": "solc",
    "version": "0.8.25+commit.b61c2a91.Emscripten.clang"
  },
  "schemaVersion": "3.4.16",
  "updatedAt": "2024-05-20T05:52:02.269Z",
  "devdoc": {
    "kind": "dev",
    "methods": {},
    "version": 1
  },
  "userdoc": {
    "kind": "user",
    "methods": {},
    "version": 1
  }
}