{
  "contractName": "Tether",
  "abi": [
    {
      "inputs": [],
      "stateMutability": "nonpayable",
      "type": "constructor"
    },
    {
      "anonymous": false,
      "inputs": [
        {
          "indexed": true,
          "internalType": "address",
          "name": "_owner",
          "type": "address"
        },
        {
          "indexed": true,
          "internalType": "address",
          "name": "_spender",
          "type": "address"
        },
        {
          "indexed": false,
          "internalType": "uint256",
          "name": "_value",
          "type": "uint256"
        }
      ],
      "name": "Approval",
      "type": "event"
    },
    {
      "anonymous": false,
      "inputs": [
        {
          "indexed": true,
          "internalType": "address",
          "name": "_from",
          "type": "address"
        },
        {
          "indexed": true,
          "internalType": "address",
          "name": "_to",
          "type": "address"
        },
        {
          "indexed": false,
          "internalType": "uint256",
          "name": "_value",
          "type": "uint256"
        }
      ],
      "name": "Transfer",
      "type": "event"
    },
    {
      "inputs": [
        {
          "internalType": "address",
          "name": "",
          "type": "address"
        },
        {
          "internalType": "address",
          "name": "",
          "type": "address"
        }
      ],
      "name": "allowance",
      "outputs": [
        {
          "internalType": "uint256",
          "name": "",
          "type": "uint256"
        }
      ],
      "stateMutability": "view",
      "type": "function"
    },
    {
      "inputs": [
        {
          "internalType": "address",
          "name": "",
          "type": "address"
        }
      ],
      "name": "balanceOf",
      "outputs": [
        {
          "internalType": "uint256",
          "name": "",
          "type": "uint256"
        }
      ],
      "stateMutability": "view",
      "type": "function"
    },
    {
      "inputs": [],
      "name": "name",
      "outputs": [
        {
          "internalType": "string",
          "name": "",
          "type": "string"
        }
      ],
      "stateMutability": "view",
      "type": "function"
    },
    {
      "inputs": [],
      "name": "symbol",
      "outputs": [
        {
          "internalType": "string",
          "name": "",
          "type": "string"
        }
      ],
      "stateMutability": "view",
      "type": "function"
    },
    {
      "inputs": [
        {
          "internalType": "address",
          "name": "to",
          "type": "address"
        },
        {
          "internalType": "uint256",
          "name": "_value",
          "type": "uint256"
        }
      ],
      "name": "transfer",
      "outputs": [
        {
          "internalType": "bool",
          "name": "success",
          "type": "bool"
        }
      ],
      "stateMutability": "nonpayable",
      "type": "function"
    },
    {
      "inputs": [
        {
          "internalType": "address",
          "name": "_spender",
          "type": "address"
        },
        {
          "internalType": "uint256",
          "name": "_value",
          "type": "uint256"
        }
      ],
      "name": "approve",
      "outputs": [
        {
          "internalType": "bool",
          "name": "success",
          "type": "bool"
        }
      ],
      "stateMutability": "nonpayable",
      "type": "function"
    },
    {
      "inputs": [
        {
          "internalType": "address",
          "name": "from",
          "type": "address"
        },
        {
          "internalType": "address",
          "name": "to",
          "type": "address"
        },
        {
          "internalType": "uint256",
          "name": "_value",
          "type": "uint256"
        }
      ],
      "name": "transferFrom",
      "outputs": [
        {
          "internalType": "bool",
          "name": "success",
          "type": "bool"
        }
      ],
      "stateMutability": "nonpayable",
      "type": "function"
    }
  ],
  "bytecode": "0x60806040526040518060400160405280600b81526020017f4d6f636b205465746865720000000000000000000000000000000000000000008152505f90816100479190610345565b506040518060400160405280600581526020017f6d555344540000000000000000000000000000000000000000000000000000008152506001908161008c9190610345565b5069d3c21bcecceda1000000600255601260035f6101000a81548160ff021916908360ff1602179055503480156100c1575f80fd5b5060025460045f3373ffffffffffffffffffffffffffffffffffffffff1673ffffffffffffffffffffffffffffffffffffffff1681526020019081526020015f2081905550610414565b5f81519050919050565b7f4e487b71000000000000000000000000000000000000000000000000000000005f52604160045260245ffd5b7f4e487b71000000000000000000000000000000000000000000000000000000005f52602260045260245ffd5b5f600282049050600182168061018657607f821691505b60208210810361019957610198610142565b5b50919050565b5f819050815f5260205f209050919050565b5f6020601f8301049050919050565b5f82821b905092915050565b5f600883026101fb7fffffffffffffffffffffffffffffffffffffffffffffffffffffffffffffffff826101c0565b61020586836101c0565b95508019841693508086168417925050509392505050565b5f819050919050565b5f819050919050565b5f61024961024461023f8461021d565b610226565b61021d565b9050919050565b5f819050919050565b6102628361022f565b61027661026e82610250565b8484546101cc565b825550505050565b5f90565b61028a61027e565b610295818484610259565b505050565b5b818110156102b8576102ad5f82610282565b60018101905061029b565b5050565b601f8211156102fd576102ce8161019f565b6102d7846101b1565b810160208510156102e6578190505b6102fa6102f2856101b1565b83018261029a565b50505b505050565b5f82821c905092915050565b5f61031d5f1984600802610302565b1980831691505092915050565b5f610335838361030e565b9150826002028217905092915050565b61034e8261010b565b67ffffffffffffffff81111561036757610366610115565b5b610371825461016f565b61037c8282856102bc565b5f60209050601f8311600181146103ad575f841561039b578287015190505b6103a5858261032a565b86555061040c565b601f1984166103bb8661019f565b5f5b828110156103e2578489015182556001820191506020850194506020810190506103bd565b868310156103ff57848901516103fb601f89168261030e565b8355505b6001600288020188555050505b505050505050565b610b4e806104215f395ff3fe608060405234801561000f575f80fd5b506004361061007b575f3560e01c806370a082311161005957806370a08231146100fd57806395d89b411461012d578063a9059cbb1461014b578063dd62ed3e1461017b5761007b565b806306fdde031461007f578063095ea7b31461009d57806323b872dd146100cd575b5f80fd5b6100876101ab565b6040516100949190610825565b60405180910390f35b6100b760048036038101906100b291906108d6565b610236565b6040516100c4919061092e565b60405180910390f35b6100e760048036038101906100e29190610947565b610323565b6040516100f4919061092e565b60405180910390f35b61011760048036038101906101129190610997565b610595565b60405161012491906109d1565b60405180910390f35b6101356105aa565b6040516101429190610825565b60405180910390f35b610165600480360381019061016091906108d6565b610636565b604051610172919061092e565b60405180910390f35b610195600480360381019061019091906109ea565b610795565b6040516101a291906109d1565b60405180910390f35b5f80546101b790610a55565b80601f01602080910402602001604051908101604052809291908181526020018280546101e390610a55565b801561022e5780601f106102055761010080835404028352916020019161022e565b820191905f5260205f20905b81548152906001019060200180831161021157829003601f168201915b505050505081565b5f8160055f3373ffffffffffffffffffffffffffffffffffffffff1673ffffffffffffffffffffffffffffffffffffffff1681526020019081526020015f205f8573ffffffffffffffffffffffffffffffffffffffff1673ffffffffffffffffffffffffffffffffffffffff1681526020019081526020015f20819055508273ffffffffffffffffffffffffffffffffffffffff163373ffffffffffffffffffffffffffffffffffffffff167f8c5be1e5ebec7d5bd14f71427d1e84f3dd0314c0f7b2291e5b200ac8c7c3b9258460405161031191906109d1565b60405180910390a36001905092915050565b5f8160045f3373ffffffffffffffffffffffffffffffffffffffff1673ffffffffffffffffffffffffffffffffffffffff1681526020019081526020015f2054101561036d575f80fd5b8160055f3373ffffffffffffffffffffffffffffffffffffffff1673ffffffffffffffffffffffffffffffffffffffff1681526020019081526020015f205f8673ffffffffffffffffffffffffffffffffffffffff1673ffffffffffffffffffffffffffffffffffffffff1681526020019081526020015f205410156103f1575f80fd5b8160045f8573ffffffffffffffffffffffffffffffffffffffff1673ffffffffffffffffffffffffffffffffffffffff1681526020019081526020015f205f82825461043d9190610ab2565b925050819055508160045f8673ffffffffffffffffffffffffffffffffffffffff1673ffffffffffffffffffffffffffffffffffffffff1681526020019081526020015f205f8282546104909190610ae5565b925050819055508160055f8673ffffffffffffffffffffffffffffffffffffffff1673ffffffffffffffffffffffffffffffffffffffff1681526020019081526020015f205f3373ffffffffffffffffffffffffffffffffffffffff1673ffffffffffffffffffffffffffffffffffffffff1681526020019081526020015f205f82825461051e9190610ae5565b925050819055508273ffffffffffffffffffffffffffffffffffffffff168473ffffffffffffffffffffffffffffffffffffffff167fddf252ad1be2c89b69c2b068fc378daa952ba7f163c4a11628f55a4df523b3ef8460405161058291906109d1565b60405180910390a3600190509392505050565b6004602052805f5260405f205f915090505481565b600180546105b790610a55565b80601f01602080910402602001604051908101604052809291908181526020018280546105e390610a55565b801561062e5780601f106106055761010080835404028352916020019161062e565b820191905f5260205f20905b81548152906001019060200180831161061157829003601f168201915b505050505081565b5f8160045f3373ffffffffffffffffffffffffffffffffffffffff1673ffffffffffffffffffffffffffffffffffffffff1681526020019081526020015f20541015610680575f80fd5b8160045f3373ffffffffffffffffffffffffffffffffffffffff1673ffffffffffffffffffffffffffffffffffffffff1681526020019081526020015f205f8282546106cc9190610ae5565b925050819055508160045f8573ffffffffffffffffffffffffffffffffffffffff1673ffffffffffffffffffffffffffffffffffffffff1681526020019081526020015f205f82825461071f9190610ab2565b925050819055508273ffffffffffffffffffffffffffffffffffffffff163373ffffffffffffffffffffffffffffffffffffffff167fddf252ad1be2c89b69c2b068fc378daa952ba7f163c4a11628f55a4df523b3ef8460405161078391906109d1565b60405180910390a36001905092915050565b6005602052815f5260405f20602052805f5260405f205f91509150505481565b5f81519050919050565b5f82825260208201905092915050565b8281835e5f83830152505050565b5f601f19601f8301169050919050565b5f6107f7826107b5565b61080181856107bf565b93506108118185602086016107cf565b61081a816107dd565b840191505092915050565b5f6020820190508181035f83015261083d81846107ed565b905092915050565b5f80fd5b5f73ffffffffffffffffffffffffffffffffffffffff82169050919050565b5f61087282610849565b9050919050565b61088281610868565b811461088c575f80fd5b50565b5f8135905061089d81610879565b92915050565b5f819050919050565b6108b5816108a3565b81146108bf575f80fd5b50565b5f813590506108d0816108ac565b92915050565b5f80604083850312156108ec576108eb610845565b5b5f6108f98582860161088f565b925050602061090a858286016108c2565b9150509250929050565b5f8115159050919050565b61092881610914565b82525050565b5f6020820190506109415f83018461091f565b92915050565b5f805f6060848603121561095e5761095d610845565b5b5f61096b8682870161088f565b935050602061097c8682870161088f565b925050604061098d868287016108c2565b9150509250925092565b5f602082840312156109ac576109ab610845565b5b5f6109b98482850161088f565b91505092915050565b6109cb816108a3565b82525050565b5f6020820190506109e45f8301846109c2565b92915050565b5f8060408385031215610a00576109ff610845565b5b5f610a0d8582860161088f565b9250506020610a1e8582860161088f565b9150509250929050565b7f4e487b71000000000000000000000000000000000000000000000000000000005f52602260045260245ffd5b5f6002820490506001821680610a6c57607f821691505b602082108103610a7f57610a7e610a28565b5b50919050565b7f4e487b71000000000000000000000000000000000000000000000000000000005f52601160045260245ffd5b5f610abc826108a3565b9150610ac7836108a3565b9250828201905080821115610adf57610ade610a85565b5b92915050565b5f610aef826108a3565b9150610afa836108a3565b9250828203905081811115610b1257610b11610a85565b5b9291505056fea2646970667358221220f7e50f50298dd67b5a7ee7c265f46475a804b469e577295be2b98b140b13b04864736f6c63430008190033",
  "immutableReferences": {},
  "source": "// SPDX-License-Identifier: MIT\r\npragma solidity ^0.8.19;\r\n\r\ncontract Tether {\r\n    string public name = \"Mock Tether\";\r\n    string public symbol = \"mUSDT\";\r\n    uint256 totalSupply = 1000000000000000000000000;\r\n    uint8 digits = 18;\r\n\r\n    event Transfer(address indexed _from, address indexed _to, uint256 _value);\r\n\r\n    event Approval(\r\n        address indexed _owner,\r\n        address indexed _spender,\r\n        uint256 _value\r\n    );\r\n\r\n    mapping(address => uint256) public balanceOf;\r\n    mapping(address => mapping(address => uint256)) public allowance;\r\n\r\n    constructor() {\r\n        balanceOf[msg.sender] = totalSupply;\r\n    }\r\n    function transfer(\r\n        address to,\r\n        uint256 _value\r\n    ) public returns (bool success) {\r\n        require(balanceOf[msg.sender] >= _value);\r\n        balanceOf[msg.sender] -= _value;\r\n        balanceOf[to] += _value;\r\n        emit Transfer(msg.sender, to, _value);\r\n        return true;\r\n    }\r\n\r\n    function approve(\r\n        address _spender,\r\n        uint256 _value\r\n    ) public returns (bool success) {\r\n        allowance[msg.sender][_spender] = _value;\r\n        emit Approval(msg.sender, _spender, _value);\r\n        return true;\r\n    }\r\n\r\n    function transferFrom(\r\n        address from,\r\n        address to,\r\n        uint256 _value\r\n    ) public returns (bool success) {\r\n        require(balanceOf[msg.sender] >= _value);\r\n        require(allowance[msg.sender][from] >= _value);\r\n        balanceOf[to] += _value;\r\n        balanceOf[from] -= _value;\r\n        allowance[from][msg.sender] -= _value;\r\n        emit Transfer(from, to, _value);\r\n        return true;\r\n    }\r\n}\r\n",
  "sourcePath": "C:\\Users\\Dell\\Desktop\\defi-staking-app-starter\\defi-staking-app-starter\\src\\contracts\\Tether.sol",
  "compiler": {
    "name": "solc",
    "version": "0.8.25+commit.b61c2a91.Emscripten.clang"
  },
  "schemaVersion": "3.4.16",
  "updatedAt": "2024-05-20T05:52:02.277Z",
  "devdoc": {
    "kind": "dev",
    "methods": {},
    "version": 1
  },
  "userdoc": {
    "kind": "user",
    "methods": {},
    "version": 1
  }
}